:1000000000800020BD010000599300001193000002
:100010001193000011930000119300001193000050
:1000200011930000119300001193000059930000F8
:100030005993000011930000CD890000D18A00007F
:100040005993000059930000599300005993000000
:1000500059930000599300005993000059930000F0
:1000600059930000599300005993000059930000E0
:1000700059930000599300005993000059930000D0
:1000800059930000599300005993000059930000C0
:1000900059930000599300005993000059930000B0
:1000A000FD27000009280000599300005993000023
:1000B0005993000059930000599300005993000090
:1000C0005993000059930000599300005993000080
:1000D0005993000059930000599300005993000070
:1000E0005993000059930000599300005993000060
:1000F00059930000C1A9000059930000EDAA000027
:100100005993000019AC0000599300005993000066
:10011000599300005993000059930000599300002F
:10012000599300005993000059930000599300001F
:10013000599300005993000059930000599300000F
:1001400059930000599300005993000059930000FF
:1001500059930000599300005993000059930000EF
:1001600059930000C599000059930000599300006D
:1001700059930000599300005993000059930000CF
:1001800059930000599300005993000059930000BF
:1001900059930000599300005993000059930000AF
:1001A000599300005993000059930000599300009F
:1001B000599300005993000089870000564B4CF278
:1001C000205210B51A804DF628121A8000BF00BFC9
:1001D00009F0C6F8514B4FF010621A60504A9A600D
:1001E000504ADA60504A136813F4807304D14F49BF
:1001F0000B604FF4A85313604D4B1A78110703D5C9
:100200001A7842F008021A704A4B4B492A221A7097
:100210004A4A4B4B8B4204D252F8040F43F8040B6A
:10022000F8E7484B484900228B4202D243F8042B9E
:10023000FAE74649464A002352F8230041F82300D2
:1002400001336F2BF8D1434B434A802103F8011B44
:100250009342FBD1414B3D4A1A60414B8A221A70AE
:10026000A3F5805324225A70A0221A709A7992071B
:10027000FCD59A79D406FCD43A4A937903F00C035E
:10028000082B384BF9D103221A7140225A719A79FE
:100290009006FCD5334A9179324B4906FBD5324A58
:1002A000324911600221516020221A709A7902F0BD
:1002B0000C020C2AFAD12E4B2E4A1A602E4B4BF60A
:1002C0007F321A6000225A60072243F8042C2B4A1E
:1002D000C3F80C2D62B609F02BFA144B1B68DA0731
:1002E00005D5274809F0AAF9264B274A1A60274B5B
:1002F0001B785B0609D5234C234B22689A4204D114
:100300001F4809F09BF9002323600BF005FF09F05B
:100310002DF808F05BFFFEE70E200540308004401A
:10032000823F04000100002B10D0034014D0034092
:1003300002D0074000E00740A0040020E00F0100C9
:1003400020F5FF1FA0040020C854002000F0FF1F6C
:100350000000000000E400E05FE400E008ED00E0E1
:100360000050064000400640448004400000131145
:1003700004800440C010050014E000E000002020CC
:10038000AD5CA35B1CE00340A5C3945A00F007409A
:10039000FFFFFFFFFFFFFFFFFFFFFFFFFFFFFFFF6D
:1003A000FFFFFFFFFFFFFFFFFFFFFFFFFFFFFFFF5D
:1003B000FFFFFFFFFFFFFFFFFFFFFFFFFFFFFFFF4D
:1003C000FFFFFFFFFFFFFFFFFFFFFFFFFFFFFFFF3D
:1003D000FFFFFFFFFFFFFFFFFFFFFFFFFFFFFFFF2D
:1003E000FFFFFFFFFFFFFFFFFFFFFFFFFFFFFFFF1D
:1003F000FFFFFFFFFFFFFFFFFFFFFFFFFFFFFFFF0D
:10040000FFFFFFFFFFFFFFFFFFFFFFFFDEF9FFFF23
:1004100010B5054C237833B9044B13B10448AFF33E
:1004200000800123237010BDA00400200000000004
:10043000DC0F0100084B10B51BB108490848AFF3A9
:1004400000800848036803B910BD074B002BFBD0A0
:10045000BDE81040184700BF00000000A4040020C1
:10046000DC0F0100A0040020000000000020704705
:10047000704700BF044A05491378002043F0200369
:1004800013700860704700BF07C007401CD00340CE
:1004900010B5054BC0F8AC34044600F2AC4005F092
:1004A0001BFB204610BD00BF4C010100836C13B143
:1004B000184604F09BBBC06C08B102F04DBE4FF073
:1004C000FF30704710B5044608F016F9204610BDFD
:1004D00010B50021044608F0CFF8B8B1B4F8B43133
:1004E0009BB2A3B1B4F8B031B4F8B22101339BB2DE
:1004F000632B88BF002392B29A42A4F8B63106D08B
:100500009A1D04EB82025060A4F8B03110BDBDE822
:10051000104008F06DB800BF826C62B1137803F030
:10052000080303F0FF0003B3D3695069181A48BFEA
:100530006FF000407047C16CC1B191F8313003F0E9
:10054000080303F0FF0083B1D1E90423D1E90001DE
:10055000101A30B463EB010100256FF000448D42A6
:1005600008BF844200D2204630BC7047084670471E
:10057000836C13B1184604F013BCC06C08B103F0CF
:10058000D3B9704700B5836C83B063B118460122BC
:100590000DF1070104F05EFA01280CD19DF8070067
:1005A00003B05DF804FBC06C28B101220DF1070116
:1005B00002F0FEFCF0E74FF0FF30F1E700B5836C8E
:1005C00083B08DF8071043B1184601220DF10701E1
:1005D00004F028FC03B05DF804FBC06C0028F9D0DF
:1005E00001220DF1070103F093FB03B05DF804FB5A
:1005F00070B5044608460D460CF0A2FB236802467F
:10060000294620465B68BDE87040184738B5044667
:1006100008460D460CF094FB2368024629465B68A9
:10062000204698470546204608F06EFA284438BD13
:100630002DE9F04F83B00F46019080680021013012
:1006400016460BF017F9014629480BF005FA044647
:1006500030460BF0F5F801460BF042F806463846F6
:100660000BF0EEF8014630460BF042F90146204609
:100670000BF0F2F94FF001084FF07E550746C146E6
:100680004FF0010A4FF0000B50460BF0DDF83946F1
:100690000BF02EF904460BF0F1FA0BF0D5F80146F9
:1006A00020460BF01BF8294606460BF0BFFA4FF028
:1006B000874148B120460BF0B9FA28B120460BF02B
:1006C0003BFB35468046D1461AF1010A4BF1000B3F
:1006D000BBF1000F08BFBAF1810FD5D1019809F124
:1006E000FF3208F1FF3380E80C0003B0BDE8F08F63
:1006F000001B374C2DE9F0438DB00A4601230E460E
:100700000746014609A80B93FFF792FF099C0A9D33
:1007100020460BF095F84FF07E510AF0E1FF324988
:100720000BF0E6F8804628460BF08AF84FF07E5131
:100730000AF0D6FF014640460BF08EF9DDF82C801A
:10074000039608F1010301350134069381460595AE
:1007500004940BF093FA4FF07C51029048460BF052
:10076000C7F8044640460BF06BF84FF07E510AF094
:10077000B7FF014620460BF06FF9044630460BF0F8
:1007800063F801460AF0ACFF014620460BF064F91D
:100790000BF074FA00970190144B154A154916484E
:1007A000164D174C08F0C8F9164917480B6823F086
:1007B00010430B60099A0A9B120302F47F22C3F3D1
:1007C0000B0313432B609DF82C3043F0E063236050
:1007D0009DF82C3043F08E4303600B6843F01043C8
:1007E0000B600DB0BDE8F083001BB74C00D8B80516
:1007F000006CDC026801010040FAFF1F04F10240B6
:1008000008F0024080F0024088F002402DE9F047F5
:100810005F4E604F604A614B614CDFF888C1DFF882
:1008200088E1A6FB0156360CA7FB018506F1040AF8
:10083000A2FB01826D09AAFB0389D20AA7FB0573FB
:10084000A4FB0274C9EB0A0709EB57075B09BF0851
:100850002409C3EB0313C7EBC70704EB4408C7EB3A
:100860000A07A5EB8304C5EB0515A2EBC802013707
:10087000A1EB850100238260876180E812001A469F
:1008800040F26D1964274FF4C8780DE0E40908FBC5
:100890001414002D5BD1002C14BF49464FF4B771DE
:1008A0000B449E4211D3013202F2B271AEFB0154ED
:1008B0006509624507FB151502D011F0030FE5D05D
:1008C00040F26D110B449E42EDD2364C02F2B271F1
:1008D000A242416101D08C073CD040F26D17324CEE
:1008E000324DDFF8C0C0A4FB014EDB1B4FEA5E189F
:1008F0004FF4C8744FEADE1E642704FB1E1EF31A71
:1009000007FB181801F003061F2400210EE0671CE6
:10091000B8F1000F02D1BEF1000F0BD1012909D1AE
:100920009F4222D8DB1B022115F8014F624501D0FE
:10093000002EECD09C4218D801310C29A3EB040303
:10094000F2D10D210133C3600161BDE8F0874FF49E
:10095000B771A5E7144CA4FB01546509642707FB94
:10096000151545B14FF4B777B9E701310133C360CD
:100970000161BDE8F087E4094FF4C87505FB141464
:10098000002C40F26D1708BF4FF4B777A7E700BF00
:1009900007452EC289888888C5B3A291254992242B
:1009A000ABAAAAAA4EF8FFFF1F85EB514004010035
:1009B00030B51F4B1B688BB005460C4601A8194685
:1009C000FFF724FF069B0599049AA3F2BC739BB220
:1009D0007F2B02D8C8B20C281FD9002303982B8084
:1009E000C3B2172B0299019A13D8CBB23B2B10D864
:1009F000D3B23B2B0DD8C302490101F4FF5103F4DC
:100A0000FF230B43C2F3460213439BB223800BB078
:100A100030BD002323800BB030BDD2B21F2ADCD8FA
:100A2000490101F4FF510A4342EA43239BB2D5E74F
:100A300000D003402DE9F04190E81A000569C26832
:100A4000C3EB03134FF4616601EB8303012D06FB37
:100A5000043602F1FF3209DD2C4BAC1E1C441F2171
:100A600001E013F8011F9C420A44FAD1022D4569A6
:100A700003DD002D01DDAB0733D040F2B2739D42A0
:100A800027DD234F013540F2B37340F26D1C642023
:100A90004FF4C87E0DE0C1EBE8110EFB1131ECB94B
:100AA000002914BF61464FF4B7710133AB420A44C9
:100AB0000FD087FB0318D917C1EB681413F0030F8D
:100AC00000FB1434E7D0013340F26D11AB420A440D
:100AD000EFD1104800FB0260BDE8F0814FF4B77120
:100AE000E3E70B49EB1781FB0501C3EB61106424BD
:100AF00004FB105038B9C3EBE1134FF4C87101FB8C
:100B00001353002BB9D10132B7E700BF40040100F5
:100B10001F85EB518051010010B50E4B0E4C19682A
:100B20008CB003A8FFF772FE0699079B089A009104
:100B300020460A490CF0D8F820460CF001F901468D
:100B4000204609F0D5FD064807F0DEFF20460CB030
:100B500010BD00BF00D00340004500208801010007
:100B600040FAFF1F10B50E4B0E4C19688CB003A84D
:100B7000FFF74CFE0399049B059A009120460A4911
:100B80000CF0B2F820460CF0DBF80146204609F0E4
:100B9000AFFD064807F0B8FF20460CB010BD00BFFF
:100BA00000D00340C00400209801010040FAFF1F5C
:100BB000F0B504468FB0FFF7AFFFD4F88054064677
:100BC000BDB1294668460025012332468DF8005004
:100BD0008DF801508DF8025003F02EFF05466F4648
:100BE000D5B1D4F8800458B3314604F04FFF0FB0AC
:100BF000F0BDD4F884140029F9D0684601233246A8
:100C00008DF831508DF832508DF8335002F098FD48
:100C100005466F46002DE4D1D4F88014C9B101F225
:100C20003C413846012332468DF800508DF8015082
:100C30008DF8025003F046FED4F880040028D3D18A
:100C4000D4F884040028D2D0314603F00FFC0FB052
:100C5000F0BDD4F884140029C9D001F58861384664
:100C6000012332468DF831508DF832508DF83350D3
:100C700002F02AFFB5E700BFF8B53F4C3F4A2368B2
:100C80003F49404F404E43F00053236013683F4CB0
:100C900043F4807305461360152008F007FC3C4AB6
:100CA000DFF818C13B49DFF818E13B4820231370F7
:100CB0004FF40012CCF80020226000240C70A1F543
:100CC0005331A1F57F718EF800403C703470037091
:100CD0000B68324ADFF8ECC043F080630B601368A6
:100CE00001F54051AEF54B3EA7F54B37A6F54B3617
:100CF000A0F54730AEF2FD3E0831A7F2FA37A6F272
:100D0000F736A0F57F7043F080431360244BCCF896
:100D10000040CEF800403C60346004600C6018680D
:100D2000204E214FA2F51F42E43A284498601368F0
:100D30001E4D43F0040313600A2008F0ABFC7279E7
:100D40001B491C4B1C4802F0DF0272712A6822F01A
:100D500002022A600A68022542F004020A603D701D
:100D60001A7802F0F8021A701A7842F004021A7027
:100D700004701B7830BFF8BD3C80044010D00340A5
:100D80007504000002C0074003C0074000E100E016
:100D900015E400E000C0074004C0074000700440B4
:100DA00000D003400040064000E0074010E000E0B3
:100DB00010ED00E001E0074002E0074080E200E0C3
:100DC00001C00740009004402E492F4A2F4B03C911
:100DD00070B52F4C2F4D206092E80300A06093E87F
:100DE00003002E68E0608EB001234FF4FC721025E2
:100DF00030466260A382E38225610AF065FF3146D6
:100E0000A06130460AF06CFC0AF05EFF224BE06104
:100E100093E80300214A4FF4E673116860620222EE
:100E200005A865842284A362FFF7F0FC0899069E5A
:100E3000079D0598099B0A9A03908DE8620004F1CA
:100E40002C0017490BF050FF164A174B1268174930
:100E500053F822203C23009304F140000BF044FFA0
:100E6000134A1449616592E803006368C4F8F80105
:100E70004FF4481213442046C4F8FC2163600EB0BE
:100E800070BD00BFAC010100B4010100BC01010054
:100E9000284500204C4E0020C401010000D0034032
:100EA000CC01010004F6FF1F10F6FF1FEC0101004A
:100EB000FC010100656E640008B50A4B01221A604E
:100EC0000521092008F0E0FB05210B2008F0DCFBE0
:100ED00005210D2008F0D8FB05211720BDE80840AA
:100EE00008F0D2BBC8F00F4038B50021152008F03B
:100EF000CBFB00250824152008F060F80AF0A4FCBC
:100F00004FF06A510AF0F4FC014628460AF0E8FB6B
:100F1000013C0546EFD104490AF0EAFC4FF0785154
:100F20000AF0E6FC38BD00BFCDCCCC4038B500257A
:100F30000824262008F042F80AF086FC4FF06A5197
:100F40000AF0D6FC014628460AF0CAFB013C0546D9
:100F5000EFD109490AF0CCFC4FF06A510AF0C8FC05
:100F600006490AF0BBFB06490AF0C2FC01460548E7
:100F70000AF0B4FB38BD00BF33335340C74B373F93
:100F80002B87163F0000C841F0B5294B294C196842
:100F9000A3B000234FF47A720E948DF83C308DF894
:100FA0004430209321931092002938D00EA8462374
:100FB000214A04F0A5FD002831D0204B05A819686E
:100FC000FFF724FC059E069D07980899099B0A9A3D
:100FD00003960295019000910EA8194907F0ACFD07
:100FE000FFF782FF0646FFF7A1FF054630460AF0ED
:100FF00025F8064628460F460AF020F832463B46BA
:10100000CDE900010F490EA807F096FD0EA804F0E7
:1010100063FD0EA80E9404F05FFD23B0F0BD032124
:10102000094809F065FB094807F06EFD30BFFDE790
:10103000244F00204C0101000402010000D00340B5
:10104000100201002C0201004402010040FAFF1FBF
:1010500008B50C4B1B8833B1AE210B4806F006FBDC
:101060000A4B20221A600521042008F00DFB0521FF
:10107000032008F009FB05210820BDE8084008F01E
:1010800003BB00BF8047002048470020C8F00F4046
:101090002DE9F041044604200D46164608F0E6FA14
:1010A0008046032008F0E2FA0746B8F1000F2ED17F
:1010B000DFF888801F4AD8F800300121132B117007
:1010C0002DDD0133C8F800300134BFB91A4F194A79
:1010D0003B680121132B11701DDD092CC8BF3B6833
:1010E00004F1FF34CCBF01330123AC423B600ADB87
:1010F000B442C8BF2C462046BDE8F0810E4B00220A
:10110000AC421A60F4DA34462046BDE8F0810B4B5D
:1011100000221A60D9E7C82008F0BCFADDE7C82031
:1011200008F0B8FAD8F800300133C8F800300134BC
:10113000CBE700BFBC0400207C47002028470020EC
:1011400010B5094C204606F089FA2046012105F029
:10115000D7FF2046022105F0CDFF00222046114690
:10116000BDE8104005F0C2BF4847002038B5022155
:10117000042008F089FA0221032008F085FA214DA5
:101180000221082008F080FA00240A202C8008F0B0
:1011900081FA1D4B1B689B0401D5204638BD0124F4
:1011A000214614202C8008F06FFA184A1848202194
:1011B000234611603C22022106F0C0FA642008F0A8
:1011C00069FAFFF7BDFF08221249114807F088FCB1
:1011D0000F4807F099FC0E4806F0E2FB0E4B1A6828
:1011E000120709D40C4A1368190703D430BF1368D7
:1011F0001B07FBD5012038BD30BF1A681007FBD490
:10120000F0E700BF8047002010F00F40C4F00F400F
:101210004847002048020100D0F00F4000B50121EE
:1012200083B0204805F066FF01211E4805F068FFE5
:10123000122200211B4805F059FF1B4B1B491A685D
:10124000184807F079FC1A4B1A491A68154807F034
:1012500073FC194B1B68012B14D0184A184B1268E9
:1012600053F822000AF0ECFA16490AF0F5FB09F0EF
:10127000E5FE02460B460B48134903B05DF804EB4C
:1012800007F05ABC11481249124B134A00780978EA
:101290001B781278019000910248104907F04CFC2D
:1012A000DBE700BF4847002008F6FF1F540201009B
:1012B0000CF6FF1F640201008847002004F6FF1FA0
:1012C00010F6FF1F00007A4494020100BD040020C4
:1012D00074470020454E0020444E00207402010057
:1012E00070B58EB0014605A8FFF790FA084C089932
:1012F000069E079D059803908DE86200099B0A9A57
:10130000044920460BF0F0FC20460EB070BD00BF33
:10131000544E0020A802010070B50C4C05460E4644
:101320002046012105F0E6FE32B20021204605F0FC
:10133000DDFE2846FFF7D4FF05460BF001FD2946E8
:1013400002462046BDE8704007F0CABB484700206F
:1013500038B5054607F0F8FE074C2070681C07F00A
:10136000F3FE6070A81C07F0EFFEA070E81C07F009
:10137000EBFEE070206838BD484E002038B50A4CBE
:101380000B460546C9B2236007F0F8FE6178681C79
:1013900007F0F4FEA178A81C07F0F0FEE178E81C45
:1013A000BDE8384007F0EABE484E002008B50020EE
:1013B000FFF7CEFF124B18600420FFF7C9FF114B57
:1013C0001860082007F0C0FE0F4B1870092007F0C6
:1013D000BBFE0E4B18700A2007F0B6FE0C4B1870BF
:1013E0000B2007F0B1FE0B4B18700C2007F0ACFE81
:1013F000094B18600D2007F0A7FE084B186008BDC8
:1014000008F6FF1F0CF6FF1F444E0020454E00203B
:1014100074470020BD0400208847002004F6FF1F09
:1014200008B5154B00201968FFF7A8FF134B0420DF
:101430001968FFF7A3FF124B0820197807F09EFEEA
:10144000104B0920197807F099FE0F4B0A201978E4
:1014500007F094FE0D4B0B20197807F08FFE0C4B14
:101460000C20197807F08AFE0A4B0D201978BDE888
:10147000084007F083BE00BF08F6FF1F0CF6FF1FF1
:10148000444E0020454E002074470020BD0400203B
:101490008847002004F6FF1F2DE9F04F8DB0FFF7BD
:1014A00085FFA74BA7491A68A74BDFF8F0820968A8
:1014B000C8F800109A4202D9A14A3C231360DFF811
:1014C000E0A2A14BDAF80020DFF8D892DFF8D8B21A
:1014D0009E4E9A4284BF3C23CAF800309C4B1A7837
:1014E000172A84BF00221A709A4B1A783B2A84BFAD
:1014F00000221A70984B1A78172A84BF00221A709B
:10150000964B1A783B2A84BF00221A70D9F8003013
:10151000012B84BF0023C9F80030DBF80030062B14
:1015200084BF0523CBF80030082008F09FF8E8B905
:1015300033680133336002E00A2008F0ABF808207A
:1015400008F094F80028F7D03268D9F80030A2F1FA
:101550000901B3FA83F304294FEA531300F28A8195
:10156000002B00F08781794A0E231360FFF7E8FD16
:10157000744B1C6803A82146FFF748F9D8F80050BF
:101580003368651B0E2B28D8DFE813F01001CA0062
:1015900065014601AD009000730039005600270038
:1015A00027002700270027000F0006220021DBF874
:1015B0000000FFF76DFD6A4BCBF8000053F82000E8
:1015C0000AF03EF967490AF047FA09F037FD02468A
:1015D0000B466548654907F0AFFAFFF71FFE372154
:1015E0002046FFF799FE604806F0DAF90A2008F075
:1015F00051F8B5F5167F97D90DB0BDE8F08FDDF83D
:1016000010E05B4B01933B2270460021C3F800E0E1
:10161000FFF73EFD019B1B689842024607D003A8D6
:1016200005920192FFF706FA464B019A186051495C
:101630004D4807F081FAD0E7DDF80CE04E4B0193FE
:101640003B2270460021C3F800E0FFF721FD019B1B
:101650001B689842024607D003A805920192FFF743
:10166000E9F9384B019A186044493F4807F064FA99
:10167000B3E7DDF814E0424B0193172270460021D6
:10168000C3F800E0FFF704FD019B1B689842024687
:1016900007D003A805920192FFF7CCF9294B019AD4
:1016A00018603849304807F047FA96E7DDF818E047
:1016B000354B01931F2270460121C3F800E0FFF76C
:1016C000E7FC019B1B689842024607D003A80692DC
:1016D0000192FFF7AFF91B4B019A18602B49224882
:1016E00007F02AFA79E7DDF81CE0294B01930C2278
:1016F00070460121C3F800E0FFF7CAFC019B1B689C
:101700009842024607D003A807920192FFF792F988
:101710000C4B019A18601F49134807F00DFA5CE75B
:10172000074B074F18684FF461620121FFF7B0FCC7
:101730001949034602460C483B6007F0FDF94CE7A7
:1017400008F6FF1F00D00340A08601008447002058
:10175000444E0020454E002074470020BD04002068
:1017600010F6FF1F00007A444847002040030100A4
:10177000FC44002028030100E80400203403010099
:10178000704700201C0301003047002010030100B7
:10179000EC04002004030100E0020100504E002090
:1017A0000CF6FF1F8847002004F6FF1F3A4B1A78FB
:1017B000002A68D10A223949394807F091F90420F2
:1017C00007F054FF0190032007F050FF019B002B0E
:1017D0007FF403AF00287FF400AFFFF7B1FCFFF701
:1017E0001FFE0A222F492E4807F07AF92C4806F0EE
:1017F000D7F840F2DC5007F04DFFFFF70FFD37211F
:101800002046FFF789FD264806F0CAF80A2007F0AF
:1018100041FF0DB0BDE8F08FDDF820E0224B0193D1
:1018200040F6340270464FF4FA61C3F800E0FFF767
:101830002FFC019B1B689842024607D003A8089220
:101840000192FFF7F7F8194B019A186018491448EC
:1018500007F072F9C1E6174ADAF800000021FFF735
:1018600017FC1549034602460D48CAF8003007F038
:1018700063F9B2E60E2A7FF779AE002B3FF476AE1D
:101880000023336072E60193FFF7CAFD019BC8F89D
:10189000004000221A708DE7BC040020C80201003D
:1018A00048470020D40201002C47002000D003400C
:1018B000F802010080510100EC02010008B5D0F8E7
:1018C000843405460C46ABB11B7B9BB9D0F8783409
:1018D00023B1DB794BB109F00FF8FCE7D0F87C3489
:1018E0001BB193F83C34002BF5D120461249FEF78A
:1018F0008DFEF0E711492046FEF77AFED5F88434D4
:10190000C3B1197B00231022204607F023F90C49AC
:101910002046FEF76DFED5F884344BB1997B002349
:101920001022204607F016F9204607F0EDF8D2E71E
:101930001946F4E72721E5E75C0301004C030100A9
:1019400058030100074C08B505460E4620460649D7
:10195000FEF74EFE31462046FEF758FE2146284649
:10196000FFF7ACFF40FAFF1F700301002DE9F843B9
:101970000446B0F900000E46154640B1431E9BB226
:10198000012B2BD9032800F0C880BDE8F883FFF7AE
:10199000E9F80746002800F0D480704B196831B18F
:1019A0000246532304F2AC4004F0AAF840B9394689
:1019B0006B48FEF72BFE04F108006A49FFF7C2FFEF
:1019C000D4F8F404002800F09F804FF4000102F0E6
:1019D000ABFE002800F0B08000236380D4F8F4044C
:1019E00002236D00238000285ED031462A4603F092
:1019F00019FA854240F0AC805B4A5C4B1168628802
:101A0000A3FB01039B09C3EB0313A1EBC303013247
:101A100012B23B2B6280B4F9043040D8002B58D06E
:101A200000210323A18023804FF400735049D4F890
:101A3000F40403EB8232D3184B60C1F8FC21002878
:101A40006ED00021466903F007F9D4F8F4040028A9
:101A500033D04FF40072464903F0E4F9B0464FF03A
:101A60000009D4F8F404002845D0314603F0F4F816
:101A7000D4F8F404002837D003F098F960B304F2E6
:101A8000AC4004F029F830B911213A4808F030FE92
:101A9000334807F039F800202080BDE8F88303219F
:101AA0002180002BBCD1BFE7D4F8F8040028A0D0D7
:101AB00031462A4602F02CF99BE7D4F8F804B046E8
:101AC0004FF0000940B14FF40072294902F020F9AB
:101AD000C7E7B4F9000055E71421274808F008FECD
:101AE0001F4807F011F8CAE7D4F8F8040028F3D02B
:101AF00002F09CF8C2E7D4F8F8040028ECD0424683
:101B00004B4601F041FBB3E7D4F8F804A0B14FF421
:101B10000002002302F044F85BE7B4F9022083E7F7
:101B2000D4F8F8040028D7D0D0F800800022002391
:101B300001F02AFB464688E704F108000F49FFF749
:101B400001FF4FF6FF7323804FF0FF30BDE8F883AD
:101B500004F108000A49FFF7F5FE00BF244F0020FA
:101B600040FAFF1FCC03010000D003408988888819
:101B700028450020B8030100A003010078030100FC
:101B800090030100F8B54C4B4C4C58694C4D4D4FEF
:101B90004D4E09F055FE2268386000232E606B72AE
:101BA0002B612B72EB600AB981E01A465369002B56
:101BB000FBD155610027454B41486F61AF80EF80F5
:101BC000AF722B6001F000F8414A4FF0010E02F1B4
:101BD00018013B4638461772D760166082F809E054
:101BE0001161174600E0396941F82300517A384EF7
:101BF00001339942F7DC2168304B09B959E01946A5
:101C00004B69002BFBD14A61324E334B13600024E9
:101C10000121304654619480D4809472A2F8B0417E
:101C20003560A2F8B241C2F8AC41A2F8B441747276
:101C30007260F4603474317206F02AFD3046274A2F
:101C40002749284D284F294E0AF024FA284B2948C5
:101C50009C80C3F88044C3F8844483F89F44C3F84D
:101C6000A04483F8B04483F8B844C3F8F444C3F8FC
:101C7000F8444FF6FF741C80262483F89C444FF4EC
:101C80007A74C3F8A404C3F8B4441B49C3F8AC7411
:101C90001846124A2E600A242C720AF0FBF907F04B
:101CA0000BFA04211548BDE8F84005F0BFBC2560DB
:101CB00080E71E60A8E700BF10F6FF1F98510020C4
:101CC0007C4E00204C4E002034010100D404010061
:101CD000884C00203447002040010100FCF5FF1F24
:101CE000C5040000F04400204C010100B8040100CC
:101CF0008C47002001100138910400004847002063
:101D0000F8B5124C14230E4601250746C0F30721EF
:101D1000204684F83B3084F85E5084F85D5000F033
:101D2000F3FAF9B2204600F0EFFAC6F30721204695
:101D300000F0EAFAF1B2204600F0E6FA2946204621
:101D400000F0D2FCB0FA80F04009F8BD34F6FF1F75
:101D500070B5954A9549964D964C84B01378002BF2
:101D6000FCD00B78DB07F9D52B6820681B1A0E2BEB
:101D7000F4D9FFF7FBF9002840F0CB80FFF768F9B2
:101D80008D4B8E481B68A0FB03208009C0EB001020
:101D9000A3EBC0003B2830D9C0F178040F2188485C
:101DA00008F0A6FC00230A222146864806F0D2FE4F
:101DB0000421854808F09CFC824806F0A5FE834873
:101DC00000F0B6FA00213020FFF79AFF7F4800F0BC
:101DD00015FB7F4B7F491A6822F002021A600A68DD
:101DE00022F002020A601A6822F400420A201A60F5
:101DF00007F050FC2046FEF73FFF0121022007F0CC
:101E000043FC754B754C764801221A606A2106F036
:101E10006BFB204600F02EFD20465522202100F0CD
:101E2000FDFC38B1E28842F0040292B2204624213F
:101E300000F0F4FC6B4C6C4B2268202153F822001C
:101E4000FEF758FC012007F025FC2368023B032B1A
:101E500062DC002B80F2A58000210420FFF750FFF8
:101E600005216248624D08F043FC564806F04CFEDE
:101E70000521604808F03CFCFFF736F809F0DEF871
:101E8000022402460B4600944E4806F0ADFE4D4833
:101E900006F03AFE0721584808F02AFCFFF746F8FA
:101EA00009F0CCF8009402460B46464806F09CFE2A
:101EB000444806F029FE0A21504808F019FC414820
:101EC00006F022FE07214E4804F04EFC0E214C483D
:101ED00004F092FC4FF038400A218022FF23029048
:101EE0008DF80C108DF80E3005F592648DF80D20EC
:101EF00004AB204613E90C0005F5946103F078FF6C
:101F000095F89C64C5F88C4446B13E493E48FFF7BD
:101F100019FDFFF7C1FA31E70C219EE7214605F1D3
:101F2000080003F031FE0028EFD0384B384A394C16
:101F30001A606E802E80FFF727F82846FEF738FEDD
:101F4000D4F8AC0118B106F053FBC4F8AC61B4F896
:101F5000B231B4F8B0219BB292B29A42A4F8B8312F
:101F600018D0002501339BB2632B8CBF0023A4F84B
:101F7000B83103F1060304EB830388BFA4F8B8511A
:101F8000586806F035FBB4F8B021B4F8B83192B215
:101F90009342E7D10123A4F8B221A4F8B43104B0EC
:101FA00070BD990059E700BFD4520020EC520020C8
:101FB000F0510020C054002000D003408988888858
:101FC000FC03010040FAFF1F0C04010034F6FF1F60
:101FD0003C80044040800440C4F00F40F0440020A6
:101FE0000082FF1F04F6FF1F10F6FF1F14040100FC
:101FF0008C4700201C04010024040100E0030100C0
:102000000CF7FF1FEC03010094470020284F00202D
:10201000B1090000884C0020F0B5864DB5F8B0211C
:10202000B5F8B23192B29BB29A42A5F8B62138BF48
:102030006432A5F8B831D31A85B053B37E4F7F4EC2
:10204000B7F90030002B4AD03068D5F8ACE1794BB5
:102050000024BEF1000F00F0C980231F021FFC34D2
:1020600053F8041F42F8041F9C42F9D1BEF1000F3F
:1020700006D0704606F0BCFA00233068C5F8AC31D3
:102080006F496E4A00F5807001F5804398423060D8
:1020900038D06C4E6C4D33686C4C02932B682268C0
:1020A000029903F57A7301328B42226014D2684F91
:1020B000684B39885B8868480091684906F03CFDA8
:1020C000654806F021FD664B32681B880392039A2F
:1020D0003B8000232A60236030BF05B0F0BDFEF7CF
:1020E00073FE3468031F221F00F5FE7053F8041FAF
:1020F00042F8041F9842F9D104F5007001233060C2
:102100003B80A2E7B7F900301160002B4A4EC0DBDC
:102110004FF400524F48FFF729FC04463080002856
:10212000B7D1504A504B1268A3FB02139B09C3EB73
:102130000313A2EBC3033B2BABD901463020C3F101
:102140007806A5F8B441FFF7DBFD484800F056F9E2
:10215000474B48491A6822F002021A600A6822F0C6
:1021600002020A601A6822F400421A60FEF7A4FE16
:102170000A2007F08FFA642007F08CFA3E4A3F4BA2
:10218000102111601A682146FF204FF0004447F2E9
:102190003055D4625063D36A002BFCDA936BDBB208
:1021A000FF2B01D0A9421ED12B4806F013FD2A486F
:1021B00006F0AAFC08F050FB314B10221A600A20EE
:1021C00007F068FA05210A2007F05EFA214B2B4838
:1021D0000022C3F88024C3F8842404F0A1FA304616
:1021E000FEF74AFD55E730BF0131D2E7B3F8B2211F
:1021F000B3F8B01192B289B28A42A3F8B82117D0CD
:10220000013292B2632A0ED8A3F8B82111468B1D71
:1022100005EB8303D3F804E0C5F8ACE1A5F8B221DF
:102220000EF1040419E77146A3F8B8E17246EEE72F
:10223000744612E7884C0020944E002000F6FF1FE1
:10224000F0040020F0510020984E00207847002034
:102250009C5100208C47002040FAFF1F2C040100F5
:10226000C451002000D003408988888834F6FF1FBD
:102270003C8004404080044088F00F400CF7FF1F72
:1022800084F00F4090F8392090F83800101A704709
:1022900090F8383090F839209A4205D95A1C0344F6
:1022A00080F83820187E70474FF0FF30704700BF2D
:1022B00090F8383090F839209A4286BF1B18187E63
:1022C0004FF0FF30704700BF704700BF38B505467C
:1022D000B0F85E0090B195F85D301446C3F121026C
:1022E00094420CD805F13B001844224606F076FFD4
:1022F00095F85D30234485F85D30204638BD0120D7
:1023000014462871EEE700BFB0F85E306BB190F86C
:102310005D30202B07D8C218013380F85D300120D2
:1023200082F83B107047012303710020704700BF03
:102330000023426980F8383080F8393080F85C300A
:1023400080F85D3080F85E3080F85F3006CA30B4C7
:102350000D68046943662A4383660A60A370426974
:1023600090F861301649146813441D7A5B7B01EBC9
:10237000C5051B026D6803F4E06343F064032B6042
:1023800090F8623013449D7CDB7D01EBC5011B029C
:10239000496803F4E06343F064030B602168536809
:1023A000194205D0036927225A70036904229A71E1
:1023B000036920225A71036980229A7030BC7047E9
:1023C0006C0B010043690CCB12681A420CD0094B0C
:1023D00099420AD9084B9942036994BF1A220D22E7
:1023E0005A70036904229A717047036927225A7050
:1023F000F7E700BF7F1A06003F420F00436993E8EA
:1024000006000968114225D01B7F134A70B40121D0
:1024100003F01F06114D04695B11B14045F823100C
:102420000021A170436990F862401D681C44A47C9F
:1024300002EBC4046468216090F861001844007ADB
:1024400002EBC002526811605A682B6823EA02034B
:102450002B6070BC704700BF6C0B010080E100E096
:1024600010B50269D378DBB2D90604463DD51021F8
:102470005806D17038D503F0040303F0FF02002B97
:1024800051D03D49626E00230B7084F85D30002A04
:102490005BD0904794F85D30002B56D02369D02252
:1024A0009A70236994F83B201A712369012284F8F9
:1024B0005C200222DA7010BD304B84F860009C4230
:1024C0004AD02F4B9C4252D094F8391013791F29CF
:1024D000DBB207D82848007820B16018013184F8B1
:1024E000391003760223D37010BD5906C3D49178F6
:1024F00001F0100101F0FF000029DDD013F001030D
:102500001ED194F85C1094F85D00884281BF4B1C8A
:10251000091984F85C3091F83B3013712369D0229B
:102520009A702269DEE7236984F83920C0229A7004
:102530002369114A1979012111700222DA7010BD44
:10254000C023937022691379CCE70122002384F819
:102550005D2084F83B30A1E7626994F86130094955
:1025600013440322187A06F0A9FF2269ACE76269D6
:1025700094F861300449F3E79C4E002034F6FF1FC5
:10258000A0F6FF1FE9250000F52500000369DB78B0
:1025900003F0200373B190F860300133DBB2012BFC
:1025A00080F860301AD9426990F861301344187A83
:1025B00007F000B870B5426903F0FF0590F861308C
:1025C00013440446187A06F0F5FFA36E5BB184F855
:1025D000385094F83900BDE87040184790F85F30E3
:1025E000002BE0D0704770BD0148FFF7CFBF00BFA0
:1025F00034F6FF1F0148FFF7C9BF00BFA0F6FF1F59
:102600002DE9F047364FDFF8DC903B68026982B075
:1026100006460093DDF8008000215025D3789B0604
:102620005AD53B680193019BC8EB03030F2BF5D9E7
:1026300049B1102BF2D000209070336980229A703B
:1026400002B0BDE8F087726996F861301344052145
:10265000187A07F019F8726996F86130134401216D
:1026600093F812A0504607F00FF8092400215046B5
:1026700006F0F6FF2B46013BFDD10121504606F046
:10268000EFFF2B46013BFDD1013CEFD1706996F87D
:1026900061100144A0220C7A4B7B09EBC4011B02A0
:1026A000496803F4E06343F064030B6096F862301A
:1026B0000344997CDB7D09EBC1011B02496803F4EB
:1026C000E06343F064030B60013AFDD13269D378D3
:1026D0009B064FF00101A4D4012002B0BDE8F087B1
:1026E000F05100206C0B0100F0B503691222DA7082
:1026F0000269937803F0200385B004460D46002B51
:102700005ED0B42393703C4922690B680093009E0D
:1027100005E00B680193019B9B1B042B42D8D378E7
:1027200003F0200303F0FF00002BF2D094F85D309B
:10273000002B31D04FF0000E4FF0020C04EB0E03D3
:1027400093F83B3013710B680393039F206907E0F4
:102750009B060DD50B680293029BDB1B052B28D82B
:10276000C378DBB203F0020202F0FF06002AEFD0CA
:1027700080F803C02669F378DBB2DF0632462DD439
:102780009F062BD5DB0731D40EF1010E94F85D3096
:102790005FFA8EFE7345D1D800201DBB002384F85C
:1027A0005E3004E09070236980229A70042005B0A6
:1027B000F0BD86702369802204209A7005B0F0BDB8
:1027C00003F0FF06FFF71CFF10B9042005B0F0BDB1
:1027D000236984F85F60B0229A7094E78023B37015
:1027E0000420DAE726698023B370D7E7BEF1000F33
:1027F0000CBF02200320F6E7F05100200148FFF74C
:102800002FBE00BF34F6FF1F0148FFF729BE00BFEF
:10281000A0F6FF1F0020704700207047F8B5144C49
:10282000037A242908BFC2805B0001250E4620469A
:10283000C1F30721174684F83B3084F85E5084F8D2
:102840005D50FFF761FDF1B22046FFF75DFDC7F374
:1028500007212046FFF758FDF9B22046FFF754FD47
:1028600029462046FFF740FFB0FA80F04009F8BD46
:1028700034F6FF1F38B50125044605713348FFF7CC
:1028800057FD052006F006FF204644F26002302185
:10289000FFF7C4FF20466C222621FFF7BFFF20462A
:1028A0004FF4F9722821FFF7B9FF204640F6227253
:1028B0002C21FFF7B3FF204644F246423C21FFF7AC
:1028C000ADFF204640F237122421FFF7A7FF204634
:1028D00044F2FF023021FFF7A1FF732202212046BC
:1028E000FFF79CFF4FF4C87006F0D4FE204641F677
:1028F0001D522E21FFF792FF042211462046FFF7BA
:102900008DFF20464FF498720621FFF787FF20467F
:1029100010220A21FFF782FF204600220E21FFF736
:102920007DFF204643F63C421021FFF777FF20460B
:1029300047F67F722221FFF771FF204636222421BD
:10294000FFF76CFF6572284638BD00BF34F6FF1FE5
:1029500010B5044619B1012911D0002010BD55222F
:102960002021FFF75BFF0028F7D0E28842F0040245
:10297000204692B22421BDE81040FFF74FBF40F23D
:1029800073122A21FFF74AFF0028E6D0882220216F
:102990002046FFF743FF0028DFD0E288204622F0E0
:1029A00004022421BDE81040FFF738BF38B50546C2
:1029B000F1B1802903799ABFC1F1800444EA04246B
:1029C000002433B9224628462221BDE83840FFF7CB
:1029D00025BFC288002322F0100203712421FFF7D3
:1029E0001DFF224628462221BDE83840FFF716BFCA
:1029F0000123037147F67F722221FFF70FFFEA8858
:102A000042F01002284692B22421BDE83840FFF778
:102A100005BF00BF0B4610B507490446184608F02D
:102A200067FF064908F05CFE09F04EF901462046B2
:102A3000BDE81040FFF7BABF00000143EE7CFF3E47
:102A400010B5044605F046FF204610BD024A034972
:102A5000034809F01FBB00BFFCF5FF1F412A00001F
:102A6000A04E002038B5074D074C08482A4621469D
:102A700009F010FB2A4621460548BDE8384009F018
:102A800009BB00BFFCF5FF1F412A0000A84E002033
:102A9000B04E00201B4A1C4B11681C48096970B4D9
:102AA00099421279027009D2194A127832B3194A3E
:102AB0004FF08041116003F5807402E01C46A3F5DD
:102AC0008073154A154912680D68AAB1A5B1144E54
:102AD0003088402810D841000A444030294402324E
:102AE0000231308033F9040B22F8020F9C4233F993
:102AF000020C21F8020FF5D870BC704703F5807402
:102B0000DFE700BFC04E0020A8EEFF1F1F8000407F
:102B1000BA4E002008E200E0C84E0020BC4E002063
:102B2000B84E0020F8B5064605F00EFD0446E8B1A3
:102B300005F00AFD054600283AD072B61F4B1A88E8
:102B40007F2A19D8002C31D01D490A6842B162B6DB
:102B5000204605F04DFD2846BDE8F84005F048BD8B
:102B600018480C601A80056062B6F8BD054672B65A
:102B7000124B1A887F2AE5D9114A12491768146046
:102B800000220C681A800D6062B63946304605F0A6
:102B900059FD384605F02CFD30462146012205F04E
:102BA00051FD2046BDE8F84005F022BD62B6F8BDF3
:102BB000204605F01DFD2C46BFE700BFB84E0020A3
:102BC000C84E0020BC4E0020F8B5284C284E2046A8
:102BD000012105F01BFE00F0A7F8264B264A2748E6
:102BE0004FF480611960236800211A60998022796E
:102BF000186102F1804202F5043240F20110D880DF
:102C00009E614FF48075022006278E26DD82D960F2
:102C1000DD8398609F8398821170167005F09CFD8B
:102C20001749184B2279184F08701A7039682279A1
:102C3000164C174D174E41F0124141F0010153114E
:102C400039609B00206803F1604302F1100703F52F
:102C5000614302F01F02012140F0104001FA02F22C
:102C6000206045F827601A60F8BD00BFC04E002004
:102C700000FEFFFF14B00440A2F00240A8EDFF1FC9
:102C8000BA4E00201B80004080F0024000F002405D
:102C900000F0FF1F952A0000024A0349034809F08B
:102CA000F9B900BFFCF5FF1F412A0000C04E00200B
:102CB000024A0349034809F0EDB900BFFCF5FF1FC4
:102CC000412A0000CC4E0020024A0349034809F083
:102CD000E1B900BFFCF5FF1F412A0000D44E0020DF
:102CE000024A0349034809F0D5B900BFFCF5FF1FAC
:102CF000412A0000DC4E0020024A0349034809F043
:102D0000C9B900BFFCF5FF1F412A0000E44E0020B6
:102D1000024A0349034809F0BDB900BFFCF5FF1F93
:102D2000412A0000EC4E0020284B29491A68294806
:102D300042F400421A600A6842F002020A601A680D
:102D400042F002021A600368002B3EDB224B1B6834
:102D5000002B3ADB214A4FF0864313601368002BA7
:102D6000FCDBF0B51E4C1F48DFF8A8E01E491F4BE6
:102D70001F4A204F204E214D41F2100CC4F800C0D4
:102D8000002404600120CEF80000DFF88CE0C1F8D8
:102D900000E04FF480311960194B1360DFF87CE0DC
:102DA000184A3A603460286000F18E40CEF8000086
:102DB000154CB9671548164946F8503C4FF4C063A6
:102DC0002A61236003600B60F0BD70473C800440C3
:102DD0004080044000F0024080F0024000F10240D8
:102DE00004F1024060F0024008F002400CF00240A2
:102DF00010F0024014F00240E0F0024084F0024083
:102E00001B1F0100001F1F1F08B004400CB004402E
:102E100018B0044004F002400100000788F00240AE
:102E2000024A0349034809F035B900BFFCF5FF1F0A
:102E3000412A0000F44E0020024A0349034809F0E9
:102E400029B900BFFCF5FF1F412A0000FC4E0020FD
:102E5000024A0349034809F01DB900BFFCF5FF1FF2
:102E6000412A0000044F0020024A0349034809F0A8
:102E700011B900BFFCF5FF1F412A00000C4F0020D4
:102E8000024A0349034809F005B900BFFCF5FF1FDA
:102E9000412A0000144F0020024A0349034809F068
:102EA000F9B800BFFCF5FF1F412A00001C4F0020AD
:102EB00010B5044600F038FD002384F8313084F862
:102EC000333010BDF0B50878202803D111F8010F78
:102ED0002028FBD051600878002851D02F282BD013
:102EE0005C2820D0A0F12204E4B21D2C1DD9DFF80B
:102EF00094E04E1C00247C28A0F12005374612D017
:102F00005E2D10D816F8010BA0F12205EDB20134A8
:102F100078B32F2811D05C282EFA05F703D01D2D89
:102F2000E9D8FD07E7D50020F0BD164D25FA04F4D9
:102F3000E607DCD50020F0BD00240F193E462546EB
:102F40002F2002E016F8010F01352028FAD02F2893
:102F5000F8D02944196044B1394611F8013D2E2BAF
:102F600001D0202B08D1013CF7D120461060012070
:102F7000F0BD1F600F19EFE7FF2CF6DD0020F0BD5C
:102F80001960F3E70101003590F831200AB1002003
:102F9000704738B504460D461146382209F050FCFA
:102FA0004023012084F8313084F83300256238BD95
:102FB0002DE9F04790F833300446D80782B040F14D
:102FC000B0800D465906164640F1B680D4E900019E
:102FD000D4E9042310EB060841F100094B4508BF72
:102FE0004245C0F0AF80002E00F0AE80A146F9E867
:102FF0000623B04653E013436FD194F831305B069B
:103000004CBFD0F82C14E169A16190F83DE4D0F8F0
:10301000243402397F0A01FA0EF2F9181144BAF188
:10302000000F46D1B8F5007F43D3D0F8143299424F
:103030003FD0B8F5806F57D394F8332052064FEA4B
:10304000582A07D4012202FA0EFEC7EB0E07BA4532
:1030500028BFBA4699424FEA4A270CD30AEB01022D
:103060009A4208D900F50370019101F001F8002897
:1030700057D0206A0199D0F8380453462A4603F005
:103080003DF800284DD038460021D4E9002312181D
:103090004B41B8EB07083D44C4E9002354D0206AF3
:1030A000D0F830741740C7F3080A002FA3D0A169E5
:1030B000ABE700F50370002200F072FF88B3CAF599
:1030C0000077474528BF474600EB0A013A462846A5
:1030D00006F084F838460021D7E794F833305906D3
:1030E0000FD5A16901318FE7D0F8380401232A46B2
:1030F00003F004F8A8B14FF4007000214FF40077FA
:10310000C3E74A46A16901F04BF940B2002808DB49
:1031100002D0206AA16978E794F8313013F0500F9B
:1031200014D194F832304FF0FF3043F0020384F8AA
:10313000323002B0BDE8F08794F831301A073FF51D
:1031400045AF50E7161A4EE74FF00008C8EB0600EF
:1031500002B0BDE8F08700BFF0B583B001220DF1E9
:1031600007010446D0E900678569FFF721FF0128C0
:1031700008BF9DF80700A56118BF4FF0FF30C4E9F4
:10318000006703B0F0BD00BF2DE9F04F90F831E0CB
:10319000856983B00446BEF1000F1BD0D0E9000161
:1031A000994208BF904216461F463BD056EA070395
:1031B00007D10023A3610120C4E9006703B0BDE883
:1031C000F08F1EF0080F0AD0D4E90423BB4208BFD9
:1031D000B24204D2A561002003B0BDE8F08F236A9B
:1031E000019393F83DC494F833A00CF1090C5FFAF5
:1031F0008CFC16F1FF3247F1FF33CCF1200803FAC3
:1032000008FB22FA0CF242EA0B02ACF1200B23FA83
:103210000BF31AF0400F42EA030205D0E3691A44A7
:10322000A261C8E70120D7E710F1FF3941F1FF3A69
:1032300029FA0CFC0AFA08F84CEA080C2AFA0BFBEB
:103240004CEA0B0C6245534617D21EF0400F16BFD6
:10325000019BE369D3F82C34A361904604F118096B
:103260004A46B8F1000FA6D0A169206A01F098F88B
:1032700008F1FF380028F3D1ACE750EA0103E4D0AD
:10328000CCEB0202E9E700BF2DE9F04F93B090F8D4
:10329000314000920D469DF87010029106462CB9FF
:1032A0009A4695F8313013F0500F07D1002086F878
:1032B000310086F8330013B0BDE8F08F009B002B7F
:1032C00000F0118122465146009801F0FFF895F870
:1032D00031300490002B40F0FB80B84A0AF10E0315
:1032E00082FB03121A44DB17C3EBE203029ADBB240
:1032F00002F00702059302334FF000095FFA83FBE7
:1033000042F0400301924C464F46039320220AA903
:103310002846FFF74DFE00283DD02028C6D19DF855
:1033200028301A0663D4002C5ED12A68A969079157
:10333000203A08920134E4B26BB3C02B00F09E80B7
:10334000C12B5FD0852BE1D138220021304609F016
:1033500077FA9DF82C309DF8292086F8302003F06C
:103360003702DB0658BF42F0080286F831202B688E
:10337000296AAA697262203B3162B36295F83330E0
:10338000C3F3801386F82C3020220AA92846FFF7C1
:103390000FFE0028C1D1029B03F04203422B85D1CE
:1033A000009B002B82D05C450DD39EE020287FF44B
:1033B0007DAF24B92A68A9690791203A0892DCB246
:1033C000A34540F2928020220AA92846FFF7F0FD8B
:1033D000631C0028EAD12846AF6900F0D3FA002820
:1033E0003FF464AFAF61EBE75C45A5D2A2E7B9F16A
:1033F000000FA2D15C4538BF0024852B86D14FF049
:103400000109A1E7C7EB0A085FFA88F8B8F10F0FC6
:1034100028BF4FF00F0843463A4600990AA801F02A
:1034200071F800284BD04744FFB2BA457FF46EAF25
:10343000029B18063FF53AAF029B13F0320F05D0FE
:1034400096F8313013F0110F7FF430AF029AD106A5
:10345000134640F1B5809A077FF528AF002200237C
:103460003046FFF791FE00283FF420AF304600F0D1
:10347000DDFB00283FF41AAF01201CE79DF829303E
:103480009DF8042086F833209F0744BF9DF80C3038
:1034900086F83330DDE90C23DDE91001C6E90423A9
:1034A0000F9BF361009BC6E90201002BC0D09DF881
:1034B0002B30534505D04FF000094F4626E7814693
:1034C00024E7BDF82C30049A9342F4D100271DE77D
:1034D000D5E9002313433FF400AF00220023C5E9E0
:1034E0000023AC61F9E60493F7E695F8333038220F
:1034F000C3F380130021304607AC8DF8243009F067
:103500009FF92B6A029D336294E8070005F00707D4
:10351000082567F07D0986F831500AF11E0706F18B
:10352000240585E80700FFB2009DCDF800904FF01C
:10353000000818460122214600F0ECFE81460028D2
:103540003FF4B4AE90F90020002AFFF6AFAE20227F
:10355000002109F075F9B8F1000F53D0B8F1010F4F
:103560003FD0C8EB08120F2FA2F11E024FF0C1018D
:10357000384628BF0F20D2B289F8001058B109F19F
:10358000020300B203EB40002A4412F8011B23F8A7
:10359000021B9842F9D108F101085FFA88F8C34587
:1035A0001BD920222146306A00F0CEFE01287FF48C
:1035B0007DAE0F3FFFB2306ABCE700BF89888888C4
:1035C000029B9B067FF558AFD6E904233046FFF7F0
:1035D000DBFD00287FF450AF68E6304600F0A4F928
:1035E00069E69DF80030C021032289F8001089F8AF
:1035F000012086F83330BDF8103089F803A0A9F80F
:103600000430C8E7059B5A1CD2B285210B4B89F8C0
:10361000001086F8302089F801201A68002ABAD0F4
:103620000DF11A0106A89047BDF81A10BDF8182030
:10363000A9F80810A9F80A20ADE700BF284F00201C
:103640002DE9F043064695B096F8314003920020EC
:103650008DF849008DF84A008DF84B0034B9994631
:1036600091F8313013F0500F0D4603D1002015B002
:10367000BDE8F08313782F2B144633D04FF00108A8
:10368000214603AB04AA3046FFF71CFC0028EDD00E
:10369000039B1B78002B3AD09DF81030059ACDF88B
:1036A000008029463046FFF7EFFD0028DED0344683
:1036B00006AF06F1300E20686168A268E3683D46F7
:1036C0000FC5103474452F46F5D120682860304668
:1036D00000F02AF9002386F8313086F83330039C55
:1036E00006ADCDE70134039421782F29FAD0D1B16A
:1036F000382206A800212F6A09F0A2F840220123EF
:1037000006AD0E978DF849208DF84B30B6E79DF841
:103710001030059ACDF8009029463046FFF7B4FDE9
:1037200015B0BDE8F083382230462C6A09F088F8DD
:1037300040230120346286F8313086F8330096E762
:1037400021B1DBB201F58861FFF77ABF0846704707
:103750008169F8B50446006A01B10131012200F027
:103760009DFC012806462FD9012301461A46206AEE
:1037700000F05EFD074638B3A06994F8333030B3EB
:103780005A0613D5421C964225D023F0400284F8F5
:103790003320E36905E0206A00F00CFEA0B1A069C7
:1037A0002B465D1C834219462A46F4D34FF0FF3264
:1037B0003146206A00F0FEFD30B1A16959B13246B0
:1037C000206A00F0F7FD30B900273846F8BD43F015
:1037D000400384F83330A6613846F8BD2DE9F04F38
:1037E00000F1240A06469AE8070087B00DF10C089C
:1037F00088E807000027DFF82CB1B9463C460022D4
:103800004146306A00F086FDFBB2054630B10078D3
:10381000C0284DD0C1282BD0852809D096F8323049
:1038200043F0010386F83230002007B0BDE8F08F86
:1038300096F83110DBF8002095F8019001F037017F
:10384000A980AAB1306A019390F80C1241F00101ED
:1038500080F80C120DF10A0102A89047BDF80A1079
:10386000BDF808202878019BA9812982EA816A8213
:10387000002115F801E0E20342EA54041EFA84F440
:103880000129A4B201F101010DD01F29F1D99945F7
:103890002CD020224146306A00F056FD012807F165
:1038A0000107ACD0BAE785280CBF04210221E0E76C
:1038B00096F8332012F0400F6A7814BF42F00202EB
:1038C00022F002026A70D6E90401C5E90201D6E9D4
:1038D0000201F2696A61C5E90601316A91F80C22B8
:1038E00042F0010281F80C222878C1E751460122FA
:1038F000306A00F00FFD002890D0356A44802846D9
:1039000000F0B6FB002889D005F5037000F0B0FB8D
:10391000002883D0D5F8380402F0DAFB00283FF401
:103920007DAF82E7284F002090F8312092B138B562
:1039300090F8332011060FD4056A0446284600F09B
:1039400097FB88B994F8323043F0010384F83230A1
:10395000002038BD0120704702F07F0280F833203C
:10396000BDE83840FFF73ABF05F5037000F080FB73
:103970000028E7D0D5F8380402F0AAFB0028E1D0EF
:10398000012038BD2DE9F04190F831305906044648
:1039900063D48068236AD3F834341844B0F1806F5C
:1039A00002D30020BDE8F0812046FFF7D1FE0028B9
:1039B000F7D0266A96F80C32DA0706F5037550D46C
:1039C000284606F5067600F0E5FA4FF4007200216D
:1039D000304608F035FF226AA36992F83D04D2F818
:1039E0002414A3F10208012708FA00F817FA00F3DB
:1039F000884418BF002511D0D2F8380408EB05011F
:103A00000123324602F0B0FB01350028C9D0226AFA
:103A100092F83D3407FA03F3AB42EDD894F8313015
:103A20005B0615D494F8333063F07F0384F83330A9
:103A3000D2F83464D4E90223D4E9040192194FF096
:103A400000077B4180197941C4E90223C4E90401DC
:103A50002046BDE8F041FFF767BF006A00F0FAFCBE
:103A600098E7284600F004FB0028A9D199E700BF99
:103A700091F8313013F0500F01D10020704730B56C
:103A800083B0C3251378526800950446FFF7FCFB0A
:103A900010B9002003B030BD102384F83130204627
:103AA000FFF770FF0028F4D0A369E3610022002330
:103AB0002046FFF769FBC123204684F8333003B06A
:103AC000BDE83040FFF730BF2DE9F043064695B022
:103AD00096F83150039200208DF849008DF84A0085
:103AE0008DF84B0035B9994691F8313013F0500FED
:103AF0000C4603D1002015B0BDE8F08313782F2BBE
:103B0000114636D04FF0010803AB04AA3046FFF748
:103B1000D9F90028EED0039B1B78002B37D09DF8F5
:103B20001030059ACDF8008021463046FFF7ACFBF7
:103B300048B9B9F1000FDDD0214604AA3046FFF79D
:103B400097FF0028D6D0344606AF06F1300E206825
:103B50006168A268E3683D460FC5103474452F467E
:103B6000F5D1206828603046FFF7A2F906AC03992A
:103B7000CAE7013103910B782F2BFAD0216A06A8EE
:103B8000FFF702FA0028B5D0039906ACBAE704AAF9
:103B900021463046FFF76CFF15B0BDE8F08300BF4B
:103BA00052EA030103D090F83310890701D40020B2
:103BB0007047C1690029FAD12DE9F8430646006A29
:103BC0001D4690F83D34093312F1FF38DBB245F160
:103BD000FF39C3F1200709FA07F7144628FA03F260
:103BE000203B3A4329FA03F31A43571C3A4600F0A4
:103BF00055FA0128804606D901463A460123306A23
:103C000000F016FB10B90020BDE8F88396F83330B9
:103C1000C6F81C8063F03F0386F83330C6E90245DE
:103C20003046BDE8F843FFF77FBE00BF90F8333061
:103C30009A0718D5F0B5C56983B08DB103F040037C
:103C4000044603F0FF0083B9A169002941D1019521
:103C5000E1612946206A00F0BDFB30BB002000E096
:103C6000012003B0F0BD00207047206AA16990F8E0
:103C70003D34D4E902670933DBB216F1FF36C3F1F4
:103C8000200E47F1FF3726FA03F207FA0EFE203B1B
:103C900042EA0E0227FA03F31A430132B1B1013DA1
:103CA0006D1A01312A4401910ABBD4E9000194F84C
:103CB000333063F07F03C4E90201C4E9040184F8EE
:103CC00033302046FFF730FE03B0F0BD0195E161CF
:103CD000EAE702AA42F8040D206A00F061FB40B254
:103CE0000028BBDB0AD1019D002DDED0B1E7002307
:103CF000019900F09DFA0028D7D1AFE74FF0FF32CD
:103D0000A169206A00F056FB0028ECD1A6E700BFAD
:103D10002DE9F04F90F8333085B09C0706460192AC
:103D20000AD496F8323043F0010386F832304FF06F
:103D3000FF3005B0BDE8F08F5A078A4600F11181C7
:103D4000019B002B00F021813146F1E80623DDF8CC
:103D5000048003919346306AD0F830445B461C409F
:103D6000C4F308094CBBB569002D00F0BD8096F87E
:103D700033305B0640F1DC80D6E9022390F83D74D5
:103D80000937FFB212F1FF3243F1FF33C7F1200EC2
:103D900003FA0EFE22FA07F1203F23FA07F741EA61
:103DA0000E01F36939430B449D42C0F0B4803046A4
:103DB000FFF7CEFC0028B4D0306AB169D0F8247483
:103DC00090F83DE48D1E640AE11905FA0EF52944C8
:103DD000B9F1000F40F08180B8F5007F57D2D6E9E5
:103DE0000423D6E90045B8F5007F474628BF4FF4C5
:103DF00000779D4208BF944234BF0122032200F5A0
:103E0000037000F0CDF800288BD048443A46514664
:103E1000B94405F0E3F9B9F5007F00F09180384628
:103E20000021D6E90023D6E9044512EB000B43EB51
:103E3000010C65455A46634608BF5C45BA44C7EB6A
:103E40000808C6E9002309D296F8331064465B4699
:103E5000C6E9043461F07F0186F83310B8F1000F31
:103E60007FF479AF5A466346D6E90201994208BF0A
:103E700090427ED3464B1B68002B00F0848096F85E
:103E80003330019863F07F0386F8333051E7B8F59B
:103E9000806F2DD3012303FA0EFEC4EB0E0ED0F873
:103EA00014324FEA5824744528BF744699424FEAA9
:103EB000442709D362189A4206D900F5037002918B
:103EC00000F068F8306A0299D0F838042346524668
:103ED00002F04AF90028A2D123E7C9F50077474547
:103EE00028BF474601228AE7F169B9B1B16165E7A8
:103EF000D0F8143299422CD0D0F83804012352461D
:103F000002F032F900283FF40CAF4FF400700021AA
:103F10004FF4007785E7691CB1614FE73046FFF742
:103F200017FC00283FF4FDAEB169F161306A45E746
:103F30002946039A00F034FA00287FF43DAF36E7B3
:103F4000306A00F5037000F093F800287FF467AF43
:103F5000E7E600F50370029100F01CF8306A029960
:103F6000CAE7D0E90423FFF70FF900283FF4D9AEE0
:103F7000E6E696F83310019861F07F01C6E9022366
:103F800086F83310D5E60198D3E6D6E900236BE72F
:103F9000284F002000224FF0FF33027083607047EB
:103FA000F8B543688BB30E468168B14217460446A4
:103FB0000ED00278D20700F10C0512D4BB071CD535
:103FC000002307F001021A432270A6602846F8BDBC
:103FD000054607F0010215F90C3B1A4322702846EA
:103FE000F8BD18462A46012302F0BEF868B12378CE
:103FF00023F001032370BB07E2D401232A46314694
:10400000606802F07BF80028DAD10020F8BD00BF1C
:1040100038B50C46D0F81C14154601EBD41100F548
:1040200003700022FFF7BCFF40B1A400C4F30804F2
:1040300003595A1C04D02B60012038BDFF2038BD25
:10404000002038BD38B50C46D0F81C14154601EBDD
:10405000D41100F503700122FFF7A2FF034628B137
:10406000A400C4F3080401201D5138BD38BD00BFB1
:104070000378DB0701D40120704710B500F10C0272
:10408000044681684068012302F06EF820B123786D
:1040900023F00103237010BD10BD00BF2DE9F84FC0
:1040A000804691468B46002944D08F1ED8F828348C
:1040B0009F423BD207F00705012303FA05F5EDB255
:1040C000C7F3C80A3E463C46D8F82414002201EB48
:1040D00014314046FFF764FFC0B110F80A100AE03F
:1040E0004A452AD0A74210D0D8F82824944217D2A3
:1040F00013F0FF050CD001340D424FEA4503A4EB49
:104100000602EDD0A7422646EED10120BDE8F88F89
:104110000AF1010ABAF5007F4FF00105DDD101E097
:10412000002634464FF0000A0125CDE70027BA46A5
:104130000125C7E7D0F81874B8E7BBF1000F04D128
:10414000B9F1010F08BFC8F81864B01CBDE8F88FBA
:10415000F8B5044600234FF0FF3600F50377C0F8AA
:1041600038144160C0F810121546384684F83C34C3
:10417000237084F80C32A660C4F814621A461946FB
:10418000FFF70EFF042D0CD8064650B15DB905228D
:104190002649F01C08F042FE18B996F86C30092B3D
:1041A00019D00020F8BD6B1E00EB031393F8BE215D
:1041B00012F07F02F5D193F8C231002BF1D000EB61
:1041C00005153846D5F8B6512946FFF7E9FE0646EB
:1041D0000028DCD1E5E7336D2B44C4F81C34736D43
:1041E000C4F82034B36D1D44C4F82454F36DC4F8EE
:1041F0002834336EC4F82C3496F86D3084F83D348E
:104200000125093305FA03F35A1EC4F818040146C0
:10421000C4F83434C4F8302420462A46FFF73EFF61
:10422000402384F83C342846F8BD00BFD804010080
:104230002DE9F04702398046D0F8280415468A183F
:10424000824238D89A46D8F81834BAF1000F35D1DE
:10425000994238BFC8F8181401F007040122D8F8B1
:10426000243402FA04F4E4B203EB1139C1F3C806B2
:104270000122494640469144FFF792FED8B1871982
:1042800000F5007017F8012B224214BF012600260A
:10429000564582EA04024FEA44040CD0013D07F877
:1042A000012C15D014F0FF04EED1B84226464FF091
:1042B0000104E7D1DCE70020BDE8F0879942CBD8C4
:1042C0009A42C9D9824228BF0022C8F81824C3E7FD
:1042D0000120BDE8F08700BF70B582B002AE054690
:1042E00046F8041D0024D5F8283401990133994279
:1042F00002D9002002B070BD32462846FFF788FE82
:1043000040B20028F5DB04F10104ECD1204602B0F4
:1043100070BD00BFF8B50E4696E82800D0F83014FE
:10432000D0F8244490F83D742940023B04EB51211D
:10433000BB40194400F50370FFF732FE18B17368F3
:10434000C3F308031844F8BD70B54C680D46A318B4
:10435000D0F830146B6090F83D340C40093322449F
:10436000DBB222FA03F406463CB12B7A3BB12B6850
:1043700001332B60013C002CF7D1012070BDD6F831
:10438000283429680133994202D94FF0FF3070BDBB
:104390002A463046FFF73CFE40B20128EAD070BD05
:1043A000D0F8283401338B4201D2FF207047FFF749
:1043B0002FBE00BF01290BD9D0F828340133994210
:1043C00010B402D9002010BC704710BCFFF73ABEF1
:1043D00000207047F0B50C4683B005460E46D5F870
:1043E000283401339C4202D9002003B0F0BD01AA59
:1043F00021462846FFF70CFE47B2002FF4DB012CC4
:10440000F2D9D5F8283401339C42EDD80022214658
:104410002846FFF717FE0028E6D0019B01349C4296
:104420000BD1002FDBD13B46A21B31462846FFF7BC
:10443000FFFE0028D8D003B0F0BDA21B31460023F8
:104440002846FFF7F5FE0028CED0019C002FCCD0E7
:104450002646C4E710B50446D0F82C14FFF73CFFFD
:1044600094F83D340933DBB2984010BDF0B500F547
:1044700088648FB000250A466846214601238DF8DE
:1044800031508DF832508DF83350FFF7D9F8064689
:10449000A0B19DF8313013F0500312D06D460DF1EC
:1044A000300E2F460FCF774520606160A260E36039
:1044B0003D4604F11004F4D13868206030460FB056
:1044C000F0BD1E4630460FB0F0BD00BFC1B110B404
:1044D0000144D30343EA520310F8012BA2F1610413
:1044E000192C9CBF203AD2B212FA83F292B2D303B3
:1044F00043EA5202814292B2EBD1104610BC70479F
:104500001046704743B370B444887E2C1ED81344C1
:10451000CD180A44023012F8013BE4B2A3F1610164
:104520001929A4F1610194BF20260026192994BFFE
:10453000202100219B1B641ADBB2E4B29C4205D10E
:10454000AA4206D030F8024F7E2CE4D9002070BC7D
:104550007047012070BC70470120704738B5044691
:104560000D462422002108F06BF9A560EB79102B91
:1045700008D0202B04D1402301202370A07038BD27
:10458000002038BD202301202370A07038BD00BF5B
:10459000024638B552F8105F04462946806801F09B
:1045A00047F950B155B123690135AB42A37818BF23
:1045B00003F0BF0363F07F03A37038BDA37843F01B
:1045C0004003F7E72DE9F041037803F020032BB90E
:1045D00003F0FF0441691F4B994203D9002630467E
:1045E000BDE8F0810546FFF7D3FF06460028F5D069
:1045F0002969A86801F0BAF80746A8683946243046
:10460000052201F07BF880460028E7D04FF40072C5
:10461000214608F015F9AB681A79012A10D901244E
:1046200003E0AB681A79A2420AD91868E11901239C
:10463000424601F099FD0134E4B20028F1D1CDE702
:104640009B7969694FF4007202FA03F311FA83F35C
:104650006B61C4E7FFFD1F0010B5044680680A4681
:104660002430A16901F04AF820B1A38803F00F03B8
:1046700000EB431010BD00BF30B590F90230002BA5
:1046800083B0044618DBA56805F1240001F066F844
:1046900030B9637843F001036370002003B030BD8C
:1046A00005F50C7001F05AF80028F2D0286801F0E6
:1046B0000FFD0028EDD0F1E70121FFF7CDFF054602
:1046C0000028E6D00378E52BE3D023780D4A1B07BA
:1046D00044BFE369C361236A126843831B0C83826E
:1046E00052B10DF1060101A89047BDF80430BDF8A4
:1046F00006202B836B82EA82A37803F07F03A370EA
:10470000C1E700BF284F002010B50378044623B945
:1047100000232370A370012010BDFFF7ADFF00231D
:104720002370A37010BD00BF09B90020704738B5D1
:1047300083789B0701D4002038BD036A002BFAD18F
:1047400004468068837909330D46DBB20139D940CC
:10475000013104F1200201F0A7F80028EBD0A37882
:104760002278E56163F01F03A37002B938BD2046CB
:10477000BDE83840FFF780BF2DE9F0430D7815F014
:10478000700F89B003D1002009B0BDE8F083C323C6
:1047900004460D4600F0D0FD0028F4D0012210237D
:1047A000A27023702046FFF70DFF0028EBD023787E
:1047B00022692262002B74D101212046FFF74CFFB1
:1047C00006460028DFD01023C37282687168F36840
:1047D0000068B6F81480B6F81A906F460FC7716972
:1047E000B269F369306908AE0FC72E2306F8203D81
:1047F0000DF10A013346202203F8012F8B42FBD131
:10480000216AA06800F0B2FFA3680146012203F10B
:10481000240000F073FF86460028B4D03746ADF878
:104820001480ADF81A900FCFCEF80000CEF8041027
:10483000CEF80820CEF80C300FCFCEF81000CEF80E
:104840001410CEF81820CEF81C302B6AADF81A30B0
:104850002E221B0C3546ADF814308DF801200FCDFB
:104860000EF12006CEF820007160B260F3600FCD2B
:1048700030617161B261F361A46804F1240000F059
:104880006DFF00283FF47FAF04F50C7000F066FF69
:1048900000283FF478AF206809B0BDE8F04301F08C
:1048A00017BC636933B1A378002223F02003A370FF
:1048B000226162612046FFF7DFFE00283FF463AF0C
:1048C0007AE700BFF0B5064693B035780192002034
:1048D0008DF824008DF825008DF826002DB91F468F
:1048E0000B7813F0700F0C4602D1002013B0F0BD0E
:1048F00013782F2B104629D001AA03A900F09AFBA8
:1049000003AA214601230028EFD0019D2D783046CF
:10491000002D2DD000F010FD40B9002FE5D021462C
:1049200003AA3046FFF728FF0028DED035460FCD1A
:1049300009AC0FC40FCD0FC433782A6822609BB92D
:1049400000233370B370019809ACD5E701300190B2
:1049500003782F2BFAD0A16809A8FFF7FFFD0028E4
:10496000C3D0019809ACC7E73046FFF785FEE7E7FB
:1049700003AA21463046FFF7FFFE13B0F0BD00BF8B
:10498000F0B5064693B03578019200208DF82400EA
:104990008DF825008DF826002DB91F460B7813F0F1
:1049A000700F0C4602D1002013B0F0BD13782F2BEE
:1049B000104617D10130019003782F2BFAD0002B2D
:1049C00035D0A16809A8FFF7C9FD0028EBD00198F0
:1049D00009AC07E03046FFF74FFE00230198337023
:1049E000B37009AC01AA03A900F024FB03AA214675
:1049F00001230028D7D0019D2D7830467DB100F0ED
:104A00009BFC354609AC0028CDD00FCD0FC40FCD8F
:104A10000FC433782A682260002BDED0DAE73B46E9
:104A200003AA2146304600F087FC13B0F0BDA16810
:104A30003046FFF793FDB7E719B101F23C41FFF7AC
:104A40009FBF0846704700BF03780BB10020704736
:104A5000FFF784BD2DE9F04F8378DF0783B005466B
:104A600040F18E800F4601780E07914600F191804B
:104A70008C0608D5826843691289C3EB42139BB246
:104A8000994528BF9946B9F1000F00F0A8806B69DD
:104A9000AA6888064E464FF0000805F1100AC3F3D5
:104AA000080B3DD5116A01EB5321BBF1000F51D129
:104AB000B6F5007F4ED3D36A99424BD0B6F5806FDE
:104AC00070D328788006C6F3472B06D41079C8EB3C
:104AD0000000C0B2834528BF834699424FEA4B2469
:104AE0000BD35B44994208D202F12400019100F0FB
:104AF00035FE002844D0AA68019910685B463A4602
:104B000001F0FCFA00283BD06B69361B2344274494
:104B10006B6164D02978AA688806C3F3080BC1D4F6
:104B200092F8058008EA5328BBF1000F38D1B8F19C
:104B3000000F35D1002B3FD149064CBF116A296ABD
:104B40002961104600F012FEAA6808EB0001BBF1D3
:104B5000000FADD002F12400002200F0CFFD78B1AB
:104B6000CBF50074B44228BF344600EB0B0122465B
:104B7000384604F033FBC7E72B7813F0700F2FD1C2
:104B80006B784FF0FF3043F002036B7003B0BDE869
:104B9000F08FC36942699B1A994528BF994672E70D
:104BA0002969CEE7106801233A4601F0A7FA0028E8
:104BB000E6D04FF40074A7E70B0705D5AB785C0689
:104BC00002D529690131BBE710462969524600F038
:104BD000D3FD0028D4DBCFD0AA682969B1E700262D
:104BE000C6EB090003B0BDE8F08F00BF70B582B01E
:104BF00001220DF10701044646690569FFF72AFF06
:104C0000012808BF9DF80700666118BF4FF0FF300C
:104C1000256102B070BD00BF30B54369C3F34315D1
:104C200083B0044605B189B901220DF10701204680
:104C3000FFF710FF40B201280BD163691F33636196
:104C4000A068303000EB451003B030BD2033436125
:104C5000F6E7002003B030BD2DE9F0410378076985
:104C60000446B3B142698A420E463AD041B9216145
:104C7000A378666123F02003A3700120BDE8F081D2
:104C800018070AD499060BD5A3681B89B6EB431FF6
:104C9000EED927610020BDE8F081E1698E42F8D8A5
:104CA000D4F808E09EF806500935E9B2501E751E8A
:104CB000C840CD40A84200D8B2B95B064CBFDEF870
:104CC0002030236A236104F110084246002DCFD022
:104CD0002169A06800F050FD002805F1FF35F4DCE3
:104CE000D7E70120BDE8F0812D1AECE72DE9F0416E
:104CF0000D4690460021242204461F469DF8186068
:104D000007F09EFDA8682B6AE36000F1300208F00E
:104D10000F0302EB4312A060A4F80480D17A0B07C2
:104D200011D401F017012170D37AE67013F0180F37
:104D300004BF41F00801217017F0320F08D023782A
:104D400013F0110F04D000202070A070BDE8F08196
:104D500007F00705A570918A538BC66AA661FE0607
:104D600043EA014106D5BA07EDD591B965F07F0553
:104D7000A57002E02162D369E361BB0602D4012081
:104D8000BDE8F081E1692046FFF766FF0028F6D113
:104D9000D9E700F0D5FD0028D5D0A578E6E700BF1B
:104DA00003780BB1FFF768BC0120704783789B073D
:104DB0001AD5036AB3B110B5016982B00446F1B9DE
:104DC000019301621946A06800F0BAFDA8B1A3786A
:104DD00022786169E16163F07F03A370EAB9012081
:104DE00002B010BD01207047002070476FF0704284
:104DF0002169A06800F0F0FC58B90020F0E702AA91
:104E0000002342F8043D806800F0B6FC0028F4DB83
:104E1000ECD1019B002BDAD0D4E72046FFF72CFC25
:104E2000DEE700BF2DE9F04783789D07044607D4ED
:104E3000637843F0010363704FF0FF30BDE8F08703
:104E400088465907914600F1C0806369DA4391456D
:104E5000EED8B9F1000F00F0BF804E464FF0000AC7
:104E600030E000297AD0A27852067ED5E2699A42D3
:104E70007BD90131216100F079FCB6F5007F014654
:104E80003DD26269E369A068B6F5007F354628BF68
:104E90004FF400759A4279D30522243000F02EFC9D
:104EA0000028C5D038442A4641462F4404F096F9DC
:104EB000B7F5007F78D06369761B2B44A844636103
:104EC00000F08A80A0682169427912EA5325C3F371
:104ED00008070CD1002FC4D000F048FC0146C7F5EC
:104EE0000075B54228BF3546A0680122D5E700F01D
:104EF0003DFC2918002FF2D1B6F5007FC1D3B6F5DD
:104F0000806FA0681CD30279C76A521BC6F347237F
:104F1000D2B2934228BF13468F424FEA432508D8A6
:104F20001F448F4205D980F824A04FF0FF32C2629F
:104F3000A0680068424601F017F90028BBD177E766
:104F4000C36A8B4229D000680123424601F00CF964
:104F500000283FF46DAF4FF40075ACE7216A51B300
:104F6000216100F003FC0146C6E704F1100200F0E5
:104F700003FC0028FFF65CAF05D12046FFF708FBD5
:104F800000283FF455AF2169A068EAE7A37813F041
:104F9000200F0CBF012205227FE780F824A04FF0EC
:104FA000FF33C362A068CEE7A068243000F0D6FBD0
:104FB000002880D13CE72046FFF7EAFA00283FF4BA
:104FC00037AF21692162A068CBE7C169FFF744FED2
:104FD00000283FF42DAF38E7E2699A4209D30A4B23
:104FE0001B6873B1A37863F07F03A3704846BDE8E4
:104FF000F087A278E36162F07F03A3704846BDE8C2
:10500000F0874846BDE8F087284F002004290CD9D6
:105010000A2906D90C299ABF00EB4101C888002053
:10502000704700EB41018888704700EB4101B1F8FF
:10503000010070472DE9F04F0378202B03D110F8C1
:10504000013F202BFBD088600378002B00F0078104
:105050002F2B2FD05C2B22D0A3F12204E4B21D2CE5
:1050600020D9DFF818E2461C00247C2BA3F1200590
:10507000374614D05E2D12D816F8013BA3F1220555
:10508000EDB20134002B00F0D3802F2B13D05C2B1A
:105090002EFA05F703D01D2DE7D8FF07E5D5002030
:1050A000BDE8F08F754D25FA04F4E407D9D500204A
:1050B000BDE8F08F002407193E4625462F2302E065
:1050C00016F8013F0135202BFAD02F2BF8D00544DC
:1050D00015604CB13A4612F8013D2E2B02D0202B20
:1050E00040F0A980013CF6D14FF0FF3523464B60DC
:1050F00001F1170601F10C03202203F8012FB3423E
:10510000FBD1461E002200E0013216F8013F2E2B93
:10511000FAD0202BF8D0B2FA82FC6E1C4FEA5C1C4D
:105120000CD0475D2E2F00EB050604D106E016F8E3
:10513000017D2E2F02D015F1FF35F8D2A2424FF09B
:10514000000980F291804E46CA4607274FF00808B2
:1051500025E02E2B47D0222B0BD07C2B09D0A3F19E
:105160002A0EBEF1050F48D9A3F13A0EBEF1050F84
:1051700058D8954239D0B74229D34FF0000C5F235D
:1051800006F1010E01EB060B5FFA8EF6062E8BF888
:105190000D3000D80E730132A24207DA835C202B57
:1051A000D7D10132A2424FF0000CF7DB4B7B202B12
:1051B0003FF475AFBCF1000F47D01AEA090F18BFD2
:1051C0004FF0020981F800900120BDE8F08F0A2F0E
:1051D00037D0954235DB2A460A2708264FF01008BB
:1051E0004FF0000CD7E79542DBD10A2F29D02A4691
:1051F0000A2708264FF01008CDE72D2BB9D1A3F1CF
:10520000210EBEF15D0FB4D89542EED0B742DED389
:10521000A3F1610EBEF1190F28D8203BDBB248EA9A
:105220000909ADE7A3F15B0EBEF1020FA1D9E6E7D4
:10523000176007194EE7FF2C3FF731AF651E234675
:1052400055E74B7B202B3FF42AAF0B7B0B4401200F
:105250007E24312208705C739A73BDE8F08F106071
:105260001C464FF0FF3542E7CA469FE7A3F1410EC7
:10527000BEF1190F98BF48EA0A0A81E7010100351B
:105280002DE9F8430F7B0E46044601F10D054FF062
:1052900002084FF07E097068B16808EB00039BB20A
:1052A00040B1084411F8012B03EB431353408842EB
:1052B0009BB2F7D1032F28BF03273A1DD2B203F0C8
:1052C0000F01B018013A0929D2B294BF30313731F9
:1052D00097424FEA13134173F1D3F319002183F876
:1052E0000D902046FFF7B8FC01212046FFF794FC03
:1052F0000B2203460146A8B193F800E02846BEF110
:10530000000F15D0DB7A1B07EED407F003FA002854
:10531000EAD108F101081FFA88F8B8F1640FBAD190
:10532000BDE8F8836078B0FA80F04009BDE8F88302
:105330000120BDE8F88300BF2DE9F04F0C7814F090
:10534000700F8DB001D004781CB100200DB0BDE805
:10535000F08F1478D2F804A0A40742D14FF00109CD
:105360000E4693460990002130460F460793FFF7FB
:1053700073FC0BF10D03069703973C46B84605975F
:105380000493012130467569FFF746FCC5F34F15BC
:105390000346002800F08C800278E52A3AD0002AE3
:1053A00038D04C4538BF00242E2A30D0D97A0F2966
:1053B0003ED001F0080101F0FF0241BBB8F1000F3F
:1053C00040F0178118460B22049907F0A3F9002832
:1053D000D7D19BF80030DB0740F11F8101230593F3
:1053E000CFE7B14D0AF10C04A5FB04494FEA990936
:1053F00009F101095FFA89F9B2E703990139C9B2E4
:105400008A42039103D15A7B069991421BD04FF0F7
:105410000008B6E7002C08BF2F464C453CBF0134BE
:10542000E4B2002A48D0E52ABED14FF00008A8E730
:10543000B8F1000FE1D15106A3D502F01F085A7B45
:10544000CDF80C800692039A013A02EB420502EB7A
:105450008505AA452A46DAD905F10D01CDF8208047
:10546000884613E0DBF80800825CBCF1190F98BF96
:105470002031A2F1410098BFC9B219289CBF203247
:10548000D2B28A42C3D1C6452FD07246511BC9B28F
:105490001846FFF7BBFDC1B29245A1F1410C02F1E4
:1054A000010E00F09F80FF28DCD94FF0000868E76C
:1054B0007378002B7FF449AF079B03F04203422B24
:1054C0007FF443AF002C08BF2F464C4503D31DE0AB
:1054D000DCB2A1451AD900213046FFF79DFB631CC1
:1054E0000028F5D173783BB12FE7DDF8208048E73D
:1054F000B3681B79012B09D8A14507D93046FFF7BE
:1055000061F81034E4B20028F2D11EE7059B33B1F4
:1055100059463046FFF7B4FE00283FF416AF790134
:105520003046FFF799FB00283FF40FAF09F1FF3831
:1055300018F0FF0800F0828048F04005EDB24746C1
:10554000002400213046FFF767FB00283FF4FDAE42
:10555000B26892F82430B84543F001034FF00F0CC5
:1055600014BF3946294682F824300BF10C0E80F81E
:105570000BC0047301700BF1170C00231EF8019F80
:105580005A0842EAC31359FA83F3E645DBB2F5D170
:1055900001F01F010139437301EB4102DBF808E020
:1055A000448301EB8202043000230FE0042B1EF839
:1055B000021014D90A2B94BF018041800133DBB261
:1055C0000D2B02F1010200F1020033D09245EDD81B
:1055D00014BF4FF0FF310021042B89B2EAD820F824
:1055E000031CEBE70028DDF8208018BF4FF000080F
:1055F000C7E6039901297FF4A8AE5C1E0A3314F8AC
:10560000010F510841EAC21250FA82F29C42D2B212
:10561000F5D1069B93427FF498AE079B1F063FF59A
:1056200094AECDF80080079B09982A463146FFF7D3
:105630005DFB8BE6013F17F0FF0782D1002130466A
:105640007569FFF7E9FAC5F34F15044600283FF4E2
:105650007CAE2022002107F0F3F85B46134A53F892
:105660000D1F58686060216019899B7AA37221819F
:105670009BF80030126803F01803237362B10DF138
:105680002E010BA89047BDF82C30BDF82E202382A8
:1056900063822383E281E282B26892F8243043F08D
:1056A000010382F82430BCE74FECC44E284F0020A1
:1056B000F8B54368816800F10C0604463246186864
:1056C000012300F051FD40B123789A07054607D425
:1056D00023F0010323702846F8BD00252846F8BDB5
:1056E0006368A7681969186832463944012300F0D5
:1056F0003BFD0028F1D02378EAE700BFF8B58368C6
:105700008B42064614460FD00378DA070F4612D4B0
:10571000630716D506F10C05002304F003041C43AF
:1057200034702846B760F8BD10F90C3B04F0030450
:105730001C433470F8BDFFF7BBFF0028E8D1002000
:10574000F8BD736806F10C0518682A46012339462E
:1057500000F0D4FC0028DFD1F1E700BF0378DB07BD
:1057600001D401207047FFF7A3BF00BF83794069D0
:10577000023999400844704770B5C379202B04461C
:105780000D46164618D0102B13D18369C1F307219B
:105790001944022200F50C70FFF7B0FF48B1EDB2DA
:1057A00030F81530E26993429ABF0120336000203F
:1057B00070BD4FF0FF3070BD8169022201EBD51141
:1057C00000F50C70FFF79AFF0028F2D005F07F0576
:1057D00050F82530E6E700BF38B5C379202B0C46DA
:1057E000154614D0102B01D0002038BD8369C1F3B9
:1057F0000721194400F50C700322FFF77FFF0346D1
:105800000028F1D0E4B2012023F8145038BD81699A
:10581000032200F50C7001EBD411FFF76FFF034674
:105820000028E1D004F07F04012043F8245038BD63
:105830002DE9F041054682B090460F46C1B9C668D1
:10584000344604E001D0019BA3B1B4420BD0EB6914
:1058500001349C4288BF0224214601AA2846FFF752
:105860008BFF0028EEDA0026304602B0BDE8F0815A
:105870000E46E5E76FF0704221462846FFF7ACFF81
:1058800006460028EFD037B9EC603046C8F8004033
:1058900002B0BDE8F081394628462246FFF79CFF5A
:1058A0000028F2D1DFE700BF2DE9F047C7687E1C72
:1058B00082B005468946924634464FF0010807E01B
:1058C000C0B1631C9A1B4A451FD0BC4217D01C466E
:1058D000EB699C4288BF022401AA2846214688BF62
:1058E0002646FFF749FF002804F1010307DB019A70
:1058F000002AE5D0BC421E464FF00008E7D14FF029
:105900000008404602B0BDE8F087B8F1000F00D0B3
:10591000EB606FF0704221462846FFF75DFF80463E
:1059200048B9ECE7671E224639462846FFF754FF80
:105930003C460028E3D0A642F4D3CAF80060E0E772
:1059400070B5054682B00C4608E0FFF745FF80B110
:10595000EB689C4238BFEC60019C5EB101AA214615
:105960002846FFF709FF061E21464FF00002284691
:10597000EBDA002002B070BDF8B504460023012523
:105980004FF0FF30E5602160A462C4F83442E37157
:1059900084F8243084F83032E062C4F838021546C6
:1059A000DAB1042A01D90020F8BD04F124061A4610
:1059B00019463046FFF7A2FE05F18055013D2D0145
:1059C00000F5DF735A190028EDD011790029EAD0CB
:1059D0005B5D5B06E7D1956801E004F12406304683
:1059E00000222946FFF78AFE0028DCD0037C022B28
:1059F000D9D1B0F80B30B3F5007FD4D1467B2671F6
:105A0000731E0022012E6371A2710FD00122114674
:105A100000E01A464900C9B2531C8E42DBB204D0E2
:105A2000092BF6D1A2710020F8BDA271C18A2161B3
:105A300009B9416A2161C789B0F8113023812F4427
:105A40005B0107EB410603F2FF13B0F81310A761E7
:105A500006EB63232662636101B9016AED1A0D4406
:105A600025FA02F240F6F473511C9A42E1610AD918
:105A70004FF6F4739A4285BFC36A23621023202332
:105A8000E3710120F8BD0C23E3718CE770B500F2DF
:105A90003C448AB000250A4601A8214601238DF81E
:105AA00004508DF805508DF80650FEF769FF064644
:105AB00058B19DF8043013F0700309D001AD0FCD3B
:105AC0000FC40FCD0FC42B68236030460AB070BDE1
:105AD0001E4630460AB070BD10B50446806C28B131
